:10000000E8C0000014C1000012C1000010C10000CF
:100010000EC100000CC100000AC1000008C10000B0
:1000200006C1000004C1000002C1000000C10000C0
:10003000FEC00000FCC00000FAC00000F8C00000D4
:10004000F6C00000F4C00000F2C00000F0C00000E4
:10005000EEC00000ECC00000EAC00000F9C40000DF
:10006000E6C00000BFC4000094C40000E0C000006F
:10007000DEC00000DCC00000DAC00000D8C0000014
:10008000D6C00000D4C00000D2C00000D0C0000024
:10009000CEC00000CCC00000CAC0000023C50000D4
:1000A000C6C00000C4C00000C2C00000C0C0000044
:1000B000BEC00000BCC00000BAC00000B8C0000054
:1000C000B6C00000B4C00000B2C00000B0C0000064
:1000D000AEC00000ACC00000AAC00000A8C0000074
:1000E000A6C0000000002200250028002B002E00E2
:1000F0003100340002010000050108010B01050573
:100100000505070508080808020202020A0A08088D
:1001100004040404010101010101010103030303BB
:1001200003030303040707070C0C0C0C0C0C0C0C4A
:100130000202020206060606060606060B0B0B0B5B
:100140000B0B0B0B01021020200808102040102080
:10015000408002010201080402010102040810208B
:100160004080804020100804020180040201804089
:1001700020100804020108040201010204081020F2
:100180004080010204081020408000000A0B020990
:100190000C0D0E0807030401000000000000000021
:1001A000000000000000000000000000000000004F
:1001B000000000000000121110000000000000000C
:1001C000000000000000000000000000000000002F
:1001D000950611241FBECFEFD1E2DEBFCDBF00E0F8
:1001E0000CBF12E0A0E0B2E0ECE6F1E100E00BBFF2
:1001F00002C007900D92A633B107D9F723E0A6E31A
:10020000B2E001C01D92AF39B207E1F710E0C9EECC
:10021000D0E000E005C021970109802FFE019CD7A6
:10022000C83ED10780E00807B1F7B8D59DC7E8CE32
:10023000982F2091F50281E0213208F043C080918F
:10024000D1028111FCCF8091F40232E03093D102CF
:100250009093D0029FEF9093CF021092CE02209302
:10026000CD02A4EDB2E0EDEAF2E090E0291331C056
:100270001092AC029091AC02880F892B8093AC0253
:100280008091AB02813049F51092AB028091AC02B3
:100290008093BB008091BC0083FDF8CF85EC8093F8
:1002A000BC008091D1028230E1F38091CF028F3F78
:1002B000B1F08091CF028032A1F08091CF028033E3
:1002C00091F084E01092D3021092F5021092D202C3
:1002D00008953D9131939F5FC9CF85EEE0CF80E0D7
:1002E000F1CF82E0EFCF83E0EDCF9091D102911179
:1002F000FCCF91E09093D1029093D0022FEF209306
:10030000CF021092CE02260F2093CD029093AC0222
:100310009091AC02880F892B8093AC028091AB0244
:100320008130F9F41092AB028091AC028093BB0053
:100330008091BC0083FDF8CF85EC8093BC00809158
:10034000D1028130E1F38091CE02861710F46091E2
:10035000CE02ADEAB2E0EAE8F2E080E0861303C044
:10036000089585EEEACF9D9191938F5FF7CF282F67
:1003700030E0F901E657FE4F9491F901EC5BFE4F36
:10038000449122503F4FF9012491222309F431C0B6
:10039000992309F191509231F0F4E92FF0E0882788
:1003A000EC52FE4F8F4FD8C602020602E601FA0158
:1003B000FE01EB0109020F02130219021D022102C4
:1003C00027022B02EB012F023502390280918000B7
:1003D0008F7780938000E22FF0E0EE0FFF1FEC514B
:1003E000FF4FA591B4918FB7F894EC914E2B4C939D
:1003F0008FBF0895809180008F7DEBCF809180002A
:10040000877FE7CF84B58F7784BDE5CF84B58F7DB7
:10041000FBCF8091B0008F778093B000DCCF8091CC
:10042000B0008F7DF9CF809190008F7780939000FE
:10043000D2CF809190008F7DF9CF80919000877FFF
:10044000F5CF8091A0008F778093A000C4CF8091DA
:10045000A0008F7DF9CF8091A000877FF5CF80919C
:1004600020018F7780932001B6CF809120018F7D6E
:10047000F9CF80912001877FF5CF08950895AF923D
:10048000BF92CF92DF92EF92FF920F931F93CF9381
:10049000DF936C017B018B01040F151FEB015E01E3
:1004A000AE18BF08C017D10759F06991D601ED9178
:1004B000FC910190F081E02DC6011995892B79F707
:1004C000C501DF91CF911F910F91FF90EF90DF90C9
:1004D000CF90BF90AF900895FC01538D448D252F90
:1004E00030E0842F90E0821B930B541710F0CF96CE
:1004F000089501970895FC01918D828D981761F000
:10050000A28DAE0FBF2FB11D5D968C91928D9F5F16
:100510009F73928F90E008958FEF9FEF0895FC01F5
:10052000918D828D981731F0828DE80FF11D858DA8
:1005300090E008958FEF9FEF0895FC01918D228D3B
:10054000892F90E0805C9F4F821B91098F739927C0
:10055000089586EF92E0F1DF21E0892B09F420E095
:10056000822F0895FC01A48DA80FB92FB11DA35AA5
:10057000BF4F2C91848D90E001968F739927848FC3
:10058000A689B7892C93A089B1898C9183708064E6
:100590008C93938D848D981306C00288F389E02D87
:1005A00080818F7D80830895EF92FF920F931F9338
:1005B000CF93DF93EC0181E0888F9B8D8C8D981316
:1005C0001AC0E889F989808185FF15C09FB7F89422
:1005D000EE89FF896083E889F9898081837080646E
:1005E00080839FBF81E090E0DF91CF911F910F91B9
:1005F000FF90EF900895F62E0B8D10E00F5F1F4FC8
:100600000F731127E02E8C8D8E110BC00FB607FCD7
:10061000FACFE889F989808185FFF5CFCE01A2DF85
:10062000F2CFEB8DEC0FFD2FF11DE35AFF4FF0825F
:100630009FB7F8940B8FEA89FB8980818062D0CFC5
:10064000CF93DF93EC01888D8823B1F0AA89BB8911
:10065000E889F9898C9185FD03C0808186FD0CC0F5
:100660000FB607FCF7CF8C9185FFF2CF808185FF15
:10067000EDCFCE0177DFEACFDF91CF91089580E013
:1006800090E0892B21F065DF81110E94000080E05D
:1006900090E0892B49F080E090E0892B29F00E94BE
:1006A000000081110E94000080E090E0892B49F059
:1006B00080E090E0892B29F00E94000081110E94C7
:1006C000000080E090E0892B49F080E090E0892BE9
:1006D00029F00E94000081110C94000008953FB79A
:1006E000F89480917E0290917F02A0918002B09157
:1006F000810226B5A89B05C02F3F19F00196A11DC8
:10070000B11D3FBFBA2FA92F982F8827BC01CD015B
:10071000620F711D811D911D42E0660F771F881FBA
:10072000991F4A95D1F7089585ED8093BC0080917B
:10073000BC0084FDFCCF1092D10208952091560296
:10074000260F3327331F21323105ECF42091D102DB
:10075000FC0190E080E0243069F082E00895A091EF
:1007600056022191AC014A5C5D4FA40FB52FB11D1B
:100770002C930196861798F380915602680F609328
:10078000560280E0089581E008950895E09189027D
:1007900080918802E81730F4F0E0E657FD4F808141
:1007A00090E008958FEF9FEF0895909189028091D6
:1007B00088022FEF3FEF981748F4E92FF0E0E65753
:1007C000FD4F208130E09F5F90938902C901089519
:1007D0008091880290918902891B990B0895CF928C
:1007E000DF92EF92FF920F931F93CF93DF937C01E1
:1007F000CB018A012091D202222389F0EB016B0107
:10080000C40ED51ECC15DD0561F06991D701ED91BF
:10081000FC910190F081E02DC7011995F3CF642F71
:100820008DDFC801DF91CF911F910F91FF90EF9065
:10083000DF90CF900895CF93DF931F92CDB7DEB7AF
:1008400069832091D2022223F9F02091F50220320F
:1008500058F021E030E0FC013383228390E080E017
:100860000F90DF91CF9108958091D302E82FF0E0AF
:10087000EC52FD4F998190838F5F8093D3028093D8
:10088000F50281E090E0ECCF61E0CE01019656DF09
:10089000F8CFCF93C62F9091AA02906221E02093C7
:1008A000D2029093F4021092D3021092F502682FB4
:1008B00083E993E0C0DF6C2F83E993E0BCDF81E044
:1008C000CF91B6CC90E080E008959091AA0290621A
:1008D00021E02093D2029093F4021092D30210925E
:1008E000F502682F83E993E0A6DF81E0A1DC809127
:1008F000AA0261E08062F9DC10928902809388028A
:1009000083E993E052CF0895CF93C82F85E1DDDFCF
:10091000C77041E050E060E070E004C0440F551F34
:10092000661F771FCA95D2F74095642F682383E12D
:10093000CF91AFCF1F93CF93DF93C82F162FD1E066
:10094000883008F4D0E08D2FC0DFC77041E050E060
:1009500060E070E004C0440F551F661F771FCA9502
:10096000D2F7111107C0482B642F8D2FDF91CF9143
:100970001F918FCF40954823F7CFFC0101900020B5
:10098000E9F73197AF01481B590BBC0186EF92E0A4
:1009900076CD1F920F920FB60F9211240BB60F92C5
:1009A0002F933F934F935F936F937F938F939F9377
:1009B000AF93BF93EF93FF9386EF92E0D3DDFF9168
:1009C000EF91BF91AF919F918F917F916F915F91C7
:1009D0004F913F912F910F900BBE0F900FBE0F9034
:1009E0001F9018951F920F920FB60F9211240BB6FD
:1009F0000F922F938F939F93EF93FF93E0910603B2
:100A0000F09107038081E0910C03F0910D0382FDCA
:100A10001DC0908180910F038F5F8F732091100311
:100A2000821741F0E0910F03F0E0EA50FD4F958FFF
:100A300080930F03FF91EF919F918F912F910F90D2
:100A40000BBE0F900FBE0F901F9018958081F2CFB4
:100A50001F920F920FB60F9211242F933F938F93F3
:100A60009F93AF93BF9380917A0290917B02A09164
:100A70007C02B0917D023091790223E0230F2D3763
:100A800058F50196A11DB11D2093790280937A0239
:100A900090937B02A0937C02B0937D0280917E02B2
:100AA00090917F02A0918002B09181020196A11DD8
:100AB000B11D80937E0290937F02A0938002B09339
:100AC0008102BF91AF919F918F913F912F910F9094
:100AD0000FBE0F901F90189526E8230F0296A11DB8
:100AE000B11DD2CF1F920F920FB60F9211240BB6E9
:100AF0000F922F933F934F935F936F937F938F93B7
:100B00009F93AF93BF93EF93FF938091B900887F3A
:100B1000803609F44CC008F03FC0883209F4A8C000
:100B200028F5803109F49CC0C8F4882309F4FAC080
:100B3000883009F495C0FF91EF91BF91AF919F91DB
:100B40008F917F916F915F914F913F912F910F9076
:100B50000BBE0F900FBE0F901F901895883109F4AF
:100B600087C0803241F78093CF0214C0803409F4EB
:100B70009CC040F48033B9F38833E9F68093CF0208
:100B800085ECAFC0803509F484C0883509F495C080
:100B9000883489F6C9DDCFCF883909F48CC038F59F
:100BA000883729F050F4883611F0803721F683E039
:100BB0008093D1021092780257C0883809F47BC024
:100BC000803919F0803809F0B6CF809178028032F0
:100BD00008F071C0E091780281E08E0F8093780276
:100BE0008091BB00F0E0E85AFD4F80833DC0803B20
:100BF00039F0E0F4803A09F479C0883A09F09BCFE3
:100C000084E08093D1021092570210925602E09134
:100C10008402F091850219958091560281110FC0CE
:100C200081E0809356021092360209C0803C09F49C
:100C3000A7CF883C09F4A4CF883B09F07CCFE09192
:100C4000570281E08E0F80935702F0E0EA5CFD4F7F
:100C500080818093BB00909157028091560229C0F9
:100C60008091AC028093BB0085EC8093BC0063CF85
:100C70009091CE028091CD02981758F5E091CE0266
:100C800081E08E0F8093CE02F0E0E355FD4F80812E
:100C9000E9CFE091CE0281E08E0F8093CE02809169
:100CA000BB00F0E0E355FD4F80839091CE02809130
:100CB000CD029817C8F285E8D8CFE091CE0281E046
:100CC0008E0F8093CE028091BB00F0E0E355FD4F84
:100CD00080838091D00281115DCF81E08093AB024F
:100CE00084EA8093BC001092D10225CF85EC8093DA
:100CF000BC001092D10280917802803230F4E091F1
:100D00007802F0E0E85AFD4F10826091780270E0BE
:100D1000E0918202F091830288E592E019951092A9
:100D2000780209CF1092CF0235CFE6EFF2E01382BE
:100D3000128288EE93E0A0E0B0E084839583A683DE
:100D4000B78324E032E03183208325EC30E035871F
:100D5000248724EC30E03787268720EC30E0318B85
:100D6000208B21EC30E0338B228B22EC30E0358B72
:100D7000248B26EC30E0378B268B118E128E138E4F
:100D8000148EE3E9F3E01382128284839583A683B1
:100D9000B78386E192E0918380830895CF93DF93B8
:100DA000CDB7DEB7A1970FB6F894DEBF0FBECDBFAB
:100DB000789484B5826084BD84B5816084BD85B536
:100DC000826085BD85B5816085BD80916E00816042
:100DD00080936E00109281008091810082608093E8
:100DE00081008091810081608093810080918000EA
:100DF0008160809380008091B10084608093B10015
:100E00008091B00081608093B000809191008260F9
:100E100080939100809191008160809391008091F6
:100E200090008160809390008091A1008260809307
:100E3000A1008091A10081608093A1008091A00019
:100E400081608093A00080912101826080932101C4
:100E50008091210181608093210180912001816036
:100E60008093200180917A00846080937A00809141
:100E70007A00826080937A0080917A00816080930A
:100E80007A0080917A00806880937A001092C10085
:100E90001092AA0210928902109288021092D30234
:100EA0001092F5021092D10281E08093D00210924C
:100EB000AB0284E15CDA85E15ADA8091B9008E7F79
:100EC0008093B9008091B9008D7F8093B90088E448
:100ED0008093B80085E48093BC008DE392E090930A
:100EE0008502809384028EE392E090938302809344
:100EF00082026FEF80E0CDDC6FEF81E0CADCE09131
:100F00000603F091070382E08083E0910203F091F1
:100F100003031082E0910403F091050380E18083D4
:100F200010920E03E0910A03F0910B0386E0808398
:100F3000E0910803F0910903808180618083E09152
:100F40000803F0910903808188608083E0910803A1
:100F5000F0910903808180688083E0910803F0911B
:100F6000090380818F7D808360E080E0E3DC60E0C6
:100F700081E0E0DC60E082E0DDDC60E083E0DADCA0
:100F800060E084E0D7DC60E085E0D4DC60E086E00F
:100F9000D1DC60E087E0CEDC61E088E0CBDC61E0C2
:100FA00089E0C8DC61E08AE0C5DC61E08BE0C2DC9E
:100FB00061E08CE0BFDC61E08DE0BCDC61E08EE0F4
:100FC000B9DC61E08FE0B6DC88E09EDC8AE09CDC86
:100FD0008BE09ADC8CE098DC8DE096DC8EE094DC93
:100FE0008FE092DC11E09AE0892E912CA12CB12C9B
:100FF00088E08ADC89E088DC8091AA028062109314
:10100000D2028093F4021092D3021092F50262E1B0
:1010100083E993E010DC81E00BD98091AA0261E0C2
:10102000806263D9109289028093880283E993E0F9
:10103000BCDB9927909387028093860284E292E03A
:101040009CDCC0908602D09087020D2C000CEE082C
:10105000FF08F7FE4AC06DE286EF92E0A5DA22278C
:101060003327A9012C193D094E095F0919A2CE01A8
:1010700081967C01CA01B901A50194014BD0605D44
:10108000F70162937F01211531054105510591F763
:10109000E114F10411F0C70170DC83E392E06DDC30
:1010A0001EDB2B013C0188EEC82E83E0D82EE12CFC
:1010B000F12C15DB6419750986099709683E7340A0
:1010C00081059105B0F3F1E0CF1AD108E108F108EC
:1010D00028EE420E23E0521E611C711CC114D10483
:1010E000E104F10431F7CBDA83CFA701960119A20D
:1010F000CE0181967C01CA01B901A50194010AD0F3
:10110000605DF70162937F012115310541055105AD
:1011100091F7BECFA1E21A2EAA1BBB1BFD010DC089
:10112000AA1FBB1FEE1FFF1FA217B307E407F50797
:1011300020F0A21BB30BE40BF50B661F771F881F73
:10114000991F1A9469F760957095809590959B0109
:10115000AC01BD01CF010895EE0FFF1F881F8BBFAB
:0C1160000790F691E02D1994F894FFCF51
:10116C0000000000D4023F026C0220039D027B02AF
:10117C008F02000000001B04EF036204C503E803A8
:10118C00D503C6034C46415F52454144494E472066
:06119C003D20000D0A00D9
:00000001FF
