:10000000F5C0000014C1000012C1000010C10000C2
:100010000EC100000CC100000AC1000008C10000B0
:1000200006C1000004C1000002C1000000C10000C0
:10003000FEC00000FCC00000FAC00000F8C00000D4
:10004000F6C00000F4C00000F2C00000F0C00000E4
:10005000EEC00000ECC00000EAC0000093C1000048
:10006000E6C00000E4C00000E2C00000E0C0000004
:10007000DEC00000DCC00000DAC00000D8C0000014
:10008000D6C00000D4C00000D2C00000D0C0000024
:10009000CEC00000CCC00000CAC00000C8C0000034
:1000A000C6C00000C4C00000C2C00000C0C0000044
:1000B000BEC00000BCC00000BAC00000B8C0000054
:1000C000B6C00000B4C00000B2C00000B0C0000064
:1000D000AEC00000ACC00000AAC00000A8C0000074
:1000E000A6C0000000000A0B02090C0D0E08070351
:1000F00004010000000000000000000000000000FB
:1001000000000000000000000000000000000000EF
:1001100012111000000000000000000000000000AC
:100120000000000000000000000000002200250088
:1001300028002B002E0031003400020100000501D0
:1001400008010B0100002100240027002A002D00D7
:100150003000330001010000040107010A01050518
:100160000505070508080808020202020A0A08082D
:10017000040404040101010101010101030303035B
:1001800003030303040707070C0C0C0C0C0C0C0CEA
:100190000202020206060606060606060B0B0B0BFB
:1001A0000B0B0B0B01021020200808102040102020
:1001B000408002010201080402010102040810202B
:1001C0004080804020100804020180040201804029
:1001D0002010080402010804020101020408102092
:1001E00040800102040810204080B90211241FBE83
:1001F000CFEFD1E2DEBFCDBF00E00CBF22E0A0E038
:10020000B2E001C01D92AD30B207E1F710E0C6EFD9
:10021000D0E000E005C021970109802FFE01B3D195
:10022000C53FD10780E00807B1F7F6D0B4C1E8CEEA
:1002300090E0FC01EC55FE4F2491825A9E4FFC0148
:100240008491882399F090E0880F991FFC01EC5B62
:10025000FE4FA591B491FC01E65DFE4F859194910E
:100260008FB7F894EC91E22BEC938FBF0895282F71
:1002700030E0F901EC51FF4F9491F901EC55FE4F3C
:100280004491225A3E4FF9012491222309F434C0AB
:10029000992309F191509231F0F4E92FF0E0882789
:1002A000EC5AFE4F8F4F6FC18501890166017D01B8
:1002B00081016B018C01920196019C01A001A401B6
:1002C000AA01AE016B01B201B801BC0180918000AE
:1002D0008F7780938000E22FF0E0EE0FFF1FE65D46
:1002E000FE4FA591B4918FB7F894EC91611148C07D
:1002F00040954E234C938FBF0895809180008F7D51
:10030000E8CF80918000877FE4CF84B58F7784BD6C
:10031000E2CF84B58F7DFBCF8091B0008F77809343
:10032000B000D9CF8091B0008F7DF9CF809190003F
:100330008F7780939000CFCF809190008F7DF9CF01
:1003400080919000877FF5CF8091A0008F77809378
:10035000A000C1CF8091A0008F7DF9CF8091A00037
:10036000877FF5CF809120018F7780932001B3CFD5
:10037000809120018F7DF9CF80912001877FF5CF7B
:100380004E2BB8CF1F920F920FB60F9211242F93BE
:100390003F938F939F93AF93BF9380910902909166
:1003A0000A02A0910B02B0910C023091080223E0E6
:1003B000230F2D3758F50196A11DB11D209308027A
:1003C0008093090290930A02A0930B02B0930C024F
:1003D0008091040290910502A0910602B09107025B
:1003E0000196A11DB11D8093040290930502A09374
:1003F0000602B0930702BF91AF919F918F913F91F9
:100400002F910F900FBE0F901F90189526E8230F85
:100410000296A11DB11DD2CF789484B5826084BDAF
:1004200084B5816084BD85B5826085BD85B58160F8
:1004300085BD80916E00816080936E001092810076
:100440008091810082608093810080918100816031
:1004500080938100809180008160809380008091F2
:10046000B10084608093B1008091B000816080937E
:10047000B000809191008260809391008091910002
:1004800081608093910080919000816080939000C2
:100490008091A10082608093A1008091A100816081
:1004A0008093A1008091A00081608093A000809142
:1004B00021018260809321018091210181608093DC
:1004C00021018091200181608093200180917A0038
:1004D000846080937A0080917A00826080937A00B1
:1004E00080917A00816080937A0080917A008068A0
:1004F00080937A001092C1000CE010E08EE2E82EAA
:10050000F12C9DE2C92ED12C2CE2A22EB12C30E090
:10051000832E30E0932E1093010200930002F0929C
:100520000302E09202028CE083DE61E08CE09FDE59
:10053000C09102028C2F7CDE60E08C2F98DED0927E
:100540000102C0920002B0920302A09202028DE268
:100550006FDE60E08DE28BDEC09102028C2F68DEE0
:1005600061E08C2F84DE81149104A9F20E940000C6
:10057000D2CFCF93DF93C0E0D2E0888159DE8A8169
:10058000DF91CF9155CEEE0FFF1F881F8BBF0790D5
:0A059000F691E02D1994F894FFCFC6
:00000001FF
