:10000000F5C0000024C1000022C1000020C1000092
:100010001EC100001CC100001AC1000018C1000070
:1000200016C1000014C1000012C1000010C1000080
:100030000EC100000CC100000AC1000008C1000090
:1000400006C1000004C1000002C1000000C10000A0
:10005000FEC00000FCC00000FAC000000C94740B4D
:10006000F6C000000C943E0B0C94140BF0C0000082
:10007000EEC00000ECC00000EAC00000E8C00000D4
:10008000E6C00000E4C00000E2C00000E0C00000E4
:10009000DEC00000DCC00000DAC000000C94BE0B23
:1000A000D6C00000D4C00000D2C00000D0C0000004
:1000B000CEC00000CCC00000CAC00000C8C0000014
:1000C000C6C00000C4C00000C2C00000C0C0000024
:1000D000BEC00000BCC00000BAC00000B8C0000034
:1000E000B6C0000000002100240027002A002D00D7
:1000F0003000330001010000040107010A01000083
:100100002200250028002B002E00310034000201BF
:100110000000050108010B01050505050705080894
:100120000808020202020A0A080804040404010181
:100130000101010101010303030303030303040796
:1001400007070C0C0C0C0C0C0C0C0202020206062D
:100150000606060606060B0B0B0B0B0B0B0B010220
:1001600010202008081020401020408002010201C9
:100170000804020101020408102040808040201081
:1001800008040201800402018040201008040201DA
:100190000804020101020408102040800102040842
:1001A0001020408000000A0B02090C0D0E08070306
:1001B000040100000000000000000000000000003A
:1001C000000000000000000000000000000000002F
:1001D00012111000000000000000000000000000EC
:1001E00000000000000000000000E20C11241FBE0F
:1001F000CFEFD1E2DEBFCDBF00E00CBF12E0A0E048
:10020000B2E0E4EDFDE100E00BBF02C007900D920B
:10021000AC35B107D9F723E0ACE5B2E001C01D92DF
:10022000AA3DB207E1F710E0C6EFD0E000E006C05B
:1002300021970109802FFE010E94C10EC53FD10701
:1002400080E00807A9F70E94280D0C94E80ED8CE8C
:10025000982F2091180381E0213208F043C080914B
:10026000F4028111FCCF8091170332E03093F40245
:100270009093F3029FEF9093F2021092F102209379
:10028000F002A7EFB2E0E0EDF2E090E0291331C018
:100290001092CF029091CF02880F892B8093CF02CA
:1002A0008091CE02813049F51092CE028091CF022A
:1002B0008093BB008091BC0083FDF8CF85EC8093D8
:1002C000BC008091F4028230E1F38091F2028F3F12
:1002D000B1F08091F2028032A1F08091F20280337D
:1002E00091F084E01092F602109218031092F50239
:1002F00008953D9131939F5FC9CF85EEE0CF80E0B7
:10030000F1CF82E0EFCF83E0EDCF08950895AF9273
:10031000BF92CF92DF92EF92FF920F931F93CF93F2
:10032000DF936C017B018B01040F151FEB015E0154
:10033000AE18BF08C017D10759F06991D601ED91E9
:10034000FC910190F081E02DC6011995892B79F778
:10035000C501DF91CF911F910F91FF90EF90DF903A
:10036000CF90BF90AF900895FC01538D448D252F01
:1003700030E0842F90E0821B930B541710F0CF963F
:10038000089501970895FC01918D828D981761F071
:10039000A28DAE0FBF2FB11D5D968C91928D9F5F88
:1003A0009F73928F90E008958FEF9FEF0895FC0167
:1003B000918D828D981731F0828DE80FF11D858D1A
:1003C00090E008958FEF9FEF0895FC01918D228DAD
:1003D000892F90E0805C9F4F821B91098F73992732
:1003E000089589E193E0F1DF21E0892B09F420E011
:1003F000822F0895FC01A48DA80FB92FB11DA35A17
:10040000BF4F2C91848D90E001968F739927848F34
:10041000A689B7892C93A089B1898C918370806457
:100420008C93938D848D981306C00288F389E02DF8
:1004300080818F7D80830895EF92FF920F931F93A9
:10044000CF93DF93EC0181E0888F9B8D8C8D981387
:100450001AC0E889F989808185FF15C09FB7F89493
:10046000EE89FF896083E889F989808183708064DF
:1004700080839FBF81E090E0DF91CF911F910F912A
:10048000FF90EF900895F62E0B8D10E00F5F1F4F39
:100490000F731127E02E8C8D8E110BC00FB607FC49
:1004A000FACFE889F989808185FFF5CFCE01A2DFF7
:1004B000F2CFEB8DEC0FFD2FF11DE35AFF4FF082D1
:1004C0009FB7F8940B8FEA89FB8980818062D0CF37
:1004D000CF93DF93EC01888D8823B1F0AA89BB8983
:1004E000E889F9898C9185FD03C0808186FD0CC067
:1004F0000FB607FCF7CF8C9185FFF2CF808185FF87
:10050000EDCFCE0177DFEACFDF91CF91089580E084
:1005100090E0892B21F065DF81110E94000080E0CE
:1005200090E0892B49F080E090E0892B29F00E942F
:10053000000081110E94000080E090E0892B49F0CA
:1005400080E090E0892B29F00E94000081110E9438
:10055000000080E090E0892B49F080E090E0892B5A
:1005600029F00E94000081110C9400000895282FAA
:1005700030E0F901EC55FE4F9491F901E25AFE4F3B
:100580004491285E3E4FF9012491222309F435C09D
:10059000992311F191509231F8F4E92FF0E0882776
:1005A000EB52FD4F8F4F0C94C10E06030A03E70276
:1005B000FE020203EC020D03130317031D032103C4
:1005C00025032B032F03EC02330339033D038091F2
:1005D00080008F7780938000E22FF0E0EE0FFF1F06
:1005E000E250FF4FA591B4918FB7F894EC9161114F
:1005F00048C040954E234C938FBF08958091800052
:100600008F7DE8CF80918000877FE4CF84B58F779E
:1006100084BDE2CF84B58F7DFBCF8091B0008F7712
:100620008093B000D9CF8091B0008F7DF9CF8091B9
:1006300090008F7780939000CFCF809190008F7D36
:10064000F9CF80919000877FF5CF8091A0008F77C0
:100650008093A000C1CF8091A0008F7DF9CF8091C1
:10066000A000877FF5CF809120018F7780932001B4
:10067000B3CF809120018F7DF9CF80912001877FBA
:10068000F5CF4E2BB8CFCF93DF9390E0FC01E25A29
:10069000FE4F2491885E9E4FFC0184918823D1F007
:1006A00090E0880F991FFC01EC51FF4FA591B49188
:1006B000FC01E250FF4FC591D49161110EC09FB76C
:1006C000F8948C91E22FE0958E238C932881E2237D
:1006D000E8839FBFDF91CF9108958FB7F894EC9195
:1006E000E22BEC938FBFF6CF3FB7F8948091A40232
:1006F0009091A502A091A602B091A70226B5A89B51
:1007000005C02F3F19F00196A11DB11D3FBFBA2FA3
:10071000A92F982F8827BC01CD01620F711D811D63
:10072000911D42E0660F771F881F991F4A95D1F7E8
:1007300008958F929F92AF92BF92CF92DF92EF92E5
:10074000FF924B015C01D0DF6B017C01CDDF6C19A6
:100750007D098E099F09683E734081059105B0F3BC
:1007600021E0821A9108A108B10888EEC80E83E042
:10077000D81EE11CF11C81149104A104B10431F7CD
:10078000FF90EF90DF90CF90BF90AF909F908F90B1
:1007900008952FB7F8946091A0027091A102809102
:1007A000A2029091A3022FBF089585ED8093BC0013
:1007B0008091BC0084FDFCCF1092F402089520913A
:1007C0007C02260F3327331F21323105ECF42091B0
:1007D000F402FC0190E080E0243069F082E00895AA
:1007E000A0917C022191AC01445A5D4FA40FB52F1A
:1007F000B11D2C930196861798F380917C02680FA7
:1008000060937C0280E0089581E008950895E0916E
:10081000AD028091AC02E81730F4F0E0E255FD4FF4
:10082000808190E008958FEF9FEF08959091AD0241
:100830008091AC022FEF3FEF981748F4E92FF0E0DA
:10084000E255FD4F208130E09F5F9093AD02C901DA
:1008500008958091AC029091AD02891B990B089587
:10086000CF92DF92EF92FF920F931F93CF93DF937C
:100870007C01CB018A012091F502222389F0EB0152
:100880006B01C40ED51ECC15DD0561F06991D70151
:10089000ED91FC910190F081E02DC7011995F3CF06
:1008A000642F8DDFC801DF91CF911F910F91FF90D1
:1008B000EF90DF90CF900895CF93DF931F92CDB745
:1008C000DEB769832091F5022223F9F02091180305
:1008D000203258F021E030E0FC013383228390E0A5
:1008E00080E00F90DF91CF9108958091F602E82F7C
:1008F000F0E0E950FD4F998190838F5F8093F6027D
:100900008093180381E090E0ECCF61E0CE01019686
:1009100056DFF8CF0F931F93CF93DF93EC01142F83
:10092000052F898191E09093F5028093170310922F
:10093000F6021092180386EB93E0BEDF602F86EB81
:1009400093E0BADF612F86EB93E0B6DF81E080DCD5
:100950008883DF91CF911F910F9108951F93CF93BB
:10096000DF93EC01142F898191E09093F50280933D
:1009700017031092F6021092180386EB93E09CDFA7
:10098000612F86EB93E098DF81E062DC8883DF9162
:10099000CF911F91089590E080E008959091F40226
:1009A0009111FCCF91E09093F4029093F3022FEF1A
:1009B0002093F2021092F102260F2093F0029093FE
:1009C000CF029091CF02880F892B8093CF02809124
:1009D000CE02813019F51092CE028091CF02809321
:1009E000BB008091BC0083FDF8CF85EC8093BC00F8
:1009F0008091F4028130E1F38091F102861710F4C6
:100A00006091F102A0EDB2E0EEEAF2E080E0861340
:100A100007C01092AD028093AC02089585EEE6CF38
:100A20009D9191938F5FF3CFCF93DF93EC018981F9
:100A300091E09093F502809317031092F6021092C2
:100A4000180386EB93E038DF81E002DC888362E004
:100A50008981A4DF86EB93E0E9DED82F80E0C82F00
:100A600086EB93E0E3DE8C2B9D2BDF91CF910895F5
:100A7000CF93DF93EC01898191E09093F50280930D
:100A800017031092F6021092180386EB93E014DF1E
:100A900081E0DEDB888361E0898180DF86EB93E0A3
:100AA000C5DEDF91CF910895CF93DF93EC01462F00
:100AB000416060E053DF6DDE7E836D8363E1CE01D4
:100AC000D7DF877081F48A819B81892BB9F361DE3E
:100AD0002D813E81621B730B8A819B81861797074C
:100AE00068F780E009C041E06BE0CE0137DF40E00D
:100AF00060E0CE0133DF81E0DF91CF910895CF93A5
:100B0000DF93EB0161E0B4DF84FB992790F99883D0
:100B100083FB992790F99A8382FB992790F999830F
:100B200086FB992790F99B83881F8827881F8C83D1
:100B3000DF91CF9108950F931F93CF93DF93EC0133
:100B400028DE7E836D8363E1CE0192DF8770C1F47E
:100B50008A819B81892BB9F31CDE2D813E81621B2A
:100B6000730B8A819B818617970768F781E08C83D6
:100B70000FEF1FEFC801DF91CF911F910F910895E3
:100B80006EE1CE0151DF8C0141E06BE0CE01E6DE8B
:100B9000F1CFCF93DF93EC0141E060E8DFDE41E08D
:100BA0006FEFCE01DBDE40E060E0CE01D7DE4F81AB
:100BB00061E9CE01D3DE41E060E0CE01CFDE40E06E
:100BC0006FEFCE01CBDE40E060E8CE01C7DE42E051
:100BD00060E0CE01DF91CF91C1CE8F929F92AF9214
:100BE000BF92CF92DF92EF92FF920F931F93CF931A
:100BF000DF936C017B01EA0160E53ADF8F5F880FCC
:100C000090E09983888366E4C60132DF082F10E004
:100C10000F5F1F4F1D830C83A881B0E020E03FE2EF
:100C20004AE350E00E94C90E6C507E4F8F4F9F4F99
:100C300038EE832E33E0932EA12CB12CA501940124
:100C40000E949F0ED8010E94D30E6C507E4F8F4F92
:100C50009F4FA50194010E949F0E2A873B874C87D6
:100C60005D8761E5C601E0DE8C01112702C0000F3F
:100C7000111F9A95E2F70F5F1F4F1F830E83A88104
:100C8000B0E020E03FE24AE350E00E94C90E6C5021
:100C90007E4F8F4F9F4FA50194010E949F0ED80158
:100CA0000E94C90E6C507E4F8F4F9F4FA50194013B
:100CB0000E949F0E2E873F87488B598B60E7C601A5
:100CC000D7DE8F5F880F90E09B838A8361E7C60140
:100CD000ABDE9C01992702C0880F991F3A95E2F775
:100CE000019699878887F7012381222331F02E818D
:100CF0003F81821B930B99878887AA81B0E020E00F
:100D00003FE24AE350E00E94C90E6C507E4F8F4F85
:100D10009F4F28EEC22E23E0D22EE12CF12CA7010A
:100D200096010E949F0EA885B9850E94C90E6C503D
:100D30007E4F8F4F9F4FA70196010E949F0E2A8BD7
:100D40003B8B4C8B5D8BDF91CF911F910F91FF906F
:100D5000EF90DF90CF90BF90AF909F908F900895CD
:100D60003F924F925F926F927F928F929F92AF923B
:100D7000BF92CF92DF92EF92FF920F931F93CF9388
:100D8000DF93CDB7DEB7A1970FB6F894DEBF0FBEE5
:100D9000CDBF8C0160EC6CDE8E3E09F07FC069E84F
:100DA000C80166DE482F416069E8C801D7DD40E030
:100DB00068E8C801D3DD41E060E8C801CFDD41E06B
:100DC0006FEFC801CBDD40E060E0C801C7DD61E93D
:100DD000C8014EDEF801878341E060E0C801BEDD56
:100DE00040E06FEFC801BADD40E060E8C801B6DD61
:100DF00060E6C8013DDE482F426160E6C801AEDD15
:100E000040E250E064E4C80185DD4FEF61E0C801D5
:100E1000A5DD41E060E8C801A1DD41E06FEFC80158
:100E20009DDD40E060E0C80199DD46E06FEFC8015C
:100E300095DD63E8C8011CDE482F446063E8C80103
:100E40008DDD47E06FEFC80189DD41E061E8C80151
:100E500085DD41E060E8C80181DD4BE664E9C80159
:100E60007DDD40E063E8C80179DD93DCF80176833D
:100E7000658363E8C801FCDD811112C0F80182813D
:100E80009381892BB1F385DCF80125813681621BC2
:100E9000730B828193818617970758F7F12C4DC306
:100EA00041E063E8C8015ADD62E9C801E1DDD82EFE
:100EB00040E061E8C80152DD46E06FEFC8014EDD59
:100EC00063E8C801D5DD482F4B7F63E8C80146DDE4
:100ED00041E06FEFC80142DD41E060E0C8013EDD66
:100EE00040E06FEFC8013ADD40E060E8C80136DD60
:100EF000F801818191E09093F5028093170310929D
:100F0000F6021092180360EB86EB93E0D5DC81E0EB
:100F10009FD9F801808366E0818140DD7E01F7E1A1
:100F2000EF0EF11C3701B7E0CB2ECA94CC2039F07C
:100F300086EB93E07BDCF30181933F01F6CF41E048
:100F40006FEFC8010BDD40E06FE4C80107DD4CE244
:100F50006EE4C80103DD40E06FEFC801FFDC44EB45
:100F600066EBC801FBDCBCE0D7FEB0E0A0E090E09F
:100F700061E070E08D2D8F77492F46954695469517
:100F800050E0F701E40FF51F2081F92FF770DF2EF5
:100F90009B1710F08A1329C0F701E40FF51FAB016E
:100FA00001C0440FDA94EAF74095242320839F5F21
:100FB000903311F7F801818191E09093F5028093CD
:100FC00017031092F6021092180360EB86EB93E081
:100FD00073DCA7E0DA2EDA94DD2089F0F701619165
:100FE0007F0186EB93E068DCF6CF30E002C03595F8
:100FF0002795FA95E2F720FFDACFAF5FD8CF81E0EF
:1010000027D9F801808341E06FEFC801A7DC40E0F9
:1010100060E0C801A3DC40E06FEFC8019FDC40E066
:1010200069E0C8019BDC40E060E1C80197DC40E07A
:1010300061E1C80193DC41E064E2C8018FDC4FEF5D
:1010400065E2C8018BDC40E065E7C80187DC41E070
:101050006FEFC80183DC4CE26EE4C8017FDC40E046
:1010600068E4C8017BDC40E260E3C80177DC40E073
:101070006FEFC80173DC49E060E3C8016FDC40E05A
:1010800064E5C8016BDC44E061E3C80167DC43E070
:1010900062E3C80163DC43E860E4C8015FDC45E269
:1010A00066E4C8015BDC40E060E6C80157DC40E074
:1010B00067E2C80153DC46E060E5C8014FDC40E070
:1010C00061E5C8014BDC46E962E5C80147DC48E060
:1010D00066E5C80143DC40E367E5C8013FDC40E06A
:1010E00061E6C8013BDC40E062E6C80137DC40E075
:1010F00064E6C80133DC40E065E6C8012FDC40EA65
:1011000066E6C8012BDC41E06FEFC80127DC42E353
:1011100062E2C80123DC44E167E4C8011FDC4FEF51
:1011200069E4C8011BDC40E06AE4C80117DC40E068
:101130006FEFC80113DC4AE06AE7C8010FDC40E04A
:101140006BE7C8010BDC41E268E7C80107DC41E05E
:101150006FEFC80103DC44E363E2C801FFDB40E05A
:1011600062E4C801FBDB4FEF64E4C801F7DB46E251
:1011700065E4C801F3DB45E066E4C801EFDB40E469
:1011800060E4C801EBDB46E06EE0C801E7DB4AE162
:1011900060E2C801E3DB40E463E4C801DFDB40E078
:1011A0006FEFC801DBDB43E064E3C801D7DB44E455
:1011B00065E3C801D3DB41E06FEFC801CFDB44E05A
:1011C00061E3C801CBDB49E06BE4C801C7DB45E064
:1011D0006CE4C801C3DB44E06DE4C801BFDB40E060
:1011E0006FEFC801BBDB40E064E4C801B7DB40E25D
:1011F00065E4C801B3DB48E067E4C801AFDB48E25F
:1012000068E4C801ABDB40E067E6C801A7DB44E067
:1012100060E7C801A3DB41E061E7C8019FDB4EEF57
:1012200062E7C8019BDB40E066E7C80197DB40E06E
:1012300067E7C80193DB41E06FEFC8018FDB41E056
:101240006DE0C8018BDB40E06FEFC80187DB41E058
:1012500060E8C80183DB48EF61E0C8017FDB41E063
:101260006FEFC8017BDB41E06EE8C80177DB41E04E
:1012700060E0C80173DB40E06FEFC8016FDB40E066
:1012800060E8C8016BDB44E06AE0C80167DB64E842
:10129000C801EEDB482F4F7E64E8C8015FDB41E008
:1012A0006BE0C8015BDBBE01635E7F4FC80127DCDA
:1012B000AE014F5F5F4FBE01635E7F4FC8018DDCA3
:1012C0008D8D882309F4F0C08B859C85AD85BE8506
:1012D0008C57924FAF4FBF4F2F8D222309F4E9C097
:1012E0004B855C856D857E854E545D4F6F4F7F4F7E
:1012F000440F551F661F771F840F951FA61FB71F2A
:1013000028A1222361F04F85588969897A894C5632
:101310005D4F6F4F7F4F840F951FA61FB71F29A1E9
:10132000222361F04B895C896D897E894A5D5D4F1E
:101330006F4F7F4F840F951FA61FB71FF80180873F
:101340009187A287B38748EE61E0C80107DBF80107
:10135000C084D184E284F384F0E2CF16FEE4DF0699
:10136000E104F10408F4D0C0BE01635E7F4FC80100
:10137000C6DBAE014F5F5F4FBE01635E7F4FC801AA
:101380002CDC8D8D882309F4A1C08B859C85AD85CF
:10139000BE858C57924FAF4FBF4F2F8D222309F43C
:1013A0009AC04B855C856D857E854E545D4F6F4F31
:1013B0007F4F440F551F661F771F840F951FA61F71
:1013C000B71F38A0332061F04F85588969897A8921
:1013D0004C565D4F6F4F7F4F840F951FA61FB71F51
:1013E00029A1222309F490C04C015D0126E2820E5E
:1013F00022E0921EA11CB11CC814D904EA04FB040B
:1014000008F482C0AB81B0E020E03FE24AE350E064
:10141000C0D42B013C0134EF430E31E0531E611C5C
:10142000711CA7019601281939094A095B09A8EE20
:10143000B3E0AFD44B015C01C301B20120ED37E052
:1014400040E050E07CD4820E931EA41EB51EC30162
:10145000B20128EE33E040E050E071D4C501B401A0
:101460006ED4332031F08F819885280F391F411DAC
:10147000511D211531054105510509F477C0BA0107
:10148000A901415051096109710990E080E02A01E8
:101490003B01442445284628472851F17695679515
:1014A000579547950196F3CF86E39BE0A0E0B0E027
:1014B00013CF2E8D222309F423CF4B855C856D85B8
:1014C0007E854C565D4F6F4F7F4F16CF86E39BE076
:1014D000A0E0B0E062CF2E8D222309F472CF4B85BD
:1014E0005C856D857E854C565D4F6F4F7F4F65CF18
:1014F000982F8827482B592B61E7C8010BDAF80190
:10150000C086D186E286F38641E061E0C80126DA32
:1015100060E4C801C9DA882309F4C0CC42E061E084
:10152000C8011CDA60E0C801BFDAF82E882309F48C
:10153000B5CC48EE61E0C80111DA8F2DA1960FB647
:10154000F894DEBF0FBECDBFDF91CF911F910F91F9
:10155000FF90EF90DF90CF90BF90AF909F908F90D3
:101560007F906F905F904F903F90089550E040E0E3
:10157000C3CFFC0101900020E9F73197AF01481B70
:10158000590BBC0189E193E00C9487018F929F92E3
:10159000AF92BF920F931F93CF93DF93CDB7DEB778
:1015A000A1970FB6F894DEBF0FBECDBF19A242308F
:1015B00008F44AE08E010F5D1F4F842E912CB12C50
:1015C000A12CA5019401BBD3E62FB901CA01EA30D1
:1015D000ECF4E05DD801EE938D01232B242B252B19
:1015E00081F790E080E0109711F0CD01C2DFA19665
:1015F0000FB6F894DEBF0FBECDBFDF91CF911F9124
:101600000F91BF90AF909F908F900895E95CE2CFCB
:10161000CF93DF93AEDFEC0184E292E0AADF8C0F80
:101620009D1FDF91CF9108951F920F920FB60F92D9
:1016300011240BB60F922F933F934F935F936F93A9
:101640007F938F939F93AF93BF93EF93FF9389E122
:1016500093E00E94FA01FF91EF91BF91AF919F91AA
:101660008F917F916F915F914F913F912F910F904B
:101670000BBE0F900FBE0F901F9018951F920F92E8
:101680000FB60F9211240BB60F922F938F939F9347
:10169000EF93FF93E0912903F0912A038081E09179
:1016A0002F03F091300382FD1DC0908180913203A1
:1016B0008F5F8F7320913303821741F0E0913203E3
:1016C000F0E0E75EFC4F958F80933203FF91EF913E
:1016D0009F918F912F910F900BBE0F900FBE0F9087
:1016E0001F9018958081F2CF1F920F920FB60F9224
:1016F00011242F933F938F939F93AF93BF93809128
:10170000A0029091A102A091A202B091A3023091F7
:101710009F0223E0230F2D3758F50196A11DB11D1F
:1017200020939F028093A0029093A102A093A20213
:10173000B093A3028091A4029091A502A091A60269
:10174000B091A7020196A11DB11D8093A4029093B0
:10175000A502A093A602B093A702BF91AF919F915B
:101760008F913F912F910F900FBE0F901F90189562
:1017700026E8230F0296A11DB11DD2CF1F920F9212
:101780000FB60F9211240BB60F922F933F934F93E6
:101790005F936F937F938F939F93AF93BF93EF93D9
:1017A000FF938091B900887F803609F44DC008F01E
:1017B00040C0883209F4A9C028F5803109F49DC0E1
:1017C000C8F4882309F4FBC0883009F496C0FF915F
:1017D000EF91BF91AF919F918F917F916F915F91A9
:1017E0004F913F912F910F900BBE0F900FBE0F9016
:1017F0001F901895883109F488C0803241F7809392
:10180000F20214C0803409F49DC040F48033B9F36F
:101810008833E9F68093F20285ECB0C0803509F494
:1018200085C0883509F496C0883489F60E94D503AE
:10183000CECF883909F48CC038F5883729F050F4B8
:10184000883611F0803719F683E08093F402109205
:101850009E0257C0883809F47BC0803919F080385F
:1018600009F0B5CF80919E02803208F071C0E091FE
:101870009E0281E08E0F80939E028091BB00F0E07B
:10188000E258FD4F80833DC0803B39F0E0F4803A60
:1018900009F479C0883A09F09ACF84E08093F40281
:1018A00010927D0210927C02E091AA02F091AB02AC
:1018B000199580917C0281110FC081E080937C0298
:1018C00010925C0209C0803C09F4A6CF883C09F460
:1018D000A3CF883B09F07BCFE0917D0281E08E0FA2
:1018E00080937D02F0E0E45AFD4F80818093BB003D
:1018F00090917D0280917C0229C08091CF028093DB
:10190000BB0085EC8093BC0062CF9091F102809186
:10191000F002981758F5E091F10281E08E0F809364
:10192000F102F0E0E053FD4F8081E9CFE091F10258
:1019300081E08E0F8093F1028091BB00F0E0E053D4
:10194000FD4F80839091F1028091F0029817C8F2C8
:1019500085E8D8CFE091F10281E08E0F8093F1020B
:101960008091BB00F0E0E053FD4F80838091F30253
:1019700081115CCF81E08093CE0284EA8093BC0029
:101980001092F40224CF85EC8093BC001092F402F4
:1019900080919E02803230F4E0919E02F0E0E258A5
:1019A000FD4F108260919E0270E0E091A802F091DC
:1019B000A9028EE792E0199510929E0208CF10922C
:1019C000F20234CFE9E1F3E01382128288EE93E071
:1019D000A0E0B0E084839583A683B78324E032E05F
:1019E0003183208325EC30E03587248724EC30E0F8
:1019F0003787268720EC30E0318B208B21EC30E0DC
:101A0000338B228B22EC30E0358B248B26EC30E0BC
:101A1000378B268B118E128E138E148EE6EBF3E02D
:101A20001382128284839583A683B78386E192E032
:101A300091838083EEECF3E089E28183138212824A
:101A40001482E2ECF3E081831382128214820895FF
:101A5000789484B5826084BD84B5816084BD85B589
:101A6000826085BD85B5816085BD80916E00816095
:101A700080936E001092810080918100826080933B
:101A8000810080918100816080938100809180003D
:101A90008160809380008091B10084608093B10068
:101AA0008091B00081608093B0008091910082604D
:101AB000809391008091910081608093910080914A
:101AC00090008160809390008091A100826080935B
:101AD000A1008091A10081608093A1008091A0006D
:101AE00081608093A0008091210182608093210118
:101AF000809121018160809321018091200181608A
:101B00008093200180917A00846080937A00809194
:101B10007A00826080937A0080917A00816080935D
:101B20007A0080917A00806880937A001092C100D8
:101B300061E087E10E94430361E089E10E94430381
:101B400060E087E10E94B70260E089E10E94B7028D
:101B500064EF71E080E090E00E9499031092AD0282
:101B60001092AC021092F602109218031092F40236
:101B700081E08093F3021092CE0261E084E10E9442
:101B8000B70261E085E10E94B7028091B9008E7FC3
:101B90008093B9008091B9008D7F8093B90088E46B
:101BA0008093B80085E48093BC0085E891E0909331
:101BB000AB028093AA0286E891E09093A9028093F9
:101BC000A802E0912903F0912A0382E08083E0914A
:101BD0002503F09126031082E0912703F09128035A
:101BE00080E1808310923103E0912D03F0912E0368
:101BF00086E08083E0912B03F0912C03808180614B
:101C00008083E0912B03F0912C0380818860808396
:101C1000E0912B03F0912C03808180688083E09118
:101C20002B03F0912C0380818F7D808360E087E11E
:101C30000E94430366E970E080E090E00E9499030F
:101C400087E292E0E5DC8EEC93E08AD88AE292E0CB
:101C5000DFDC64E670E080E090E00E94990347E1F9
:101C60006AE88EEC93E00E94AE0487E18093CF0394
:101C70008DE292E0CDDC60E089E10E94430366E9F9
:101C800070E080E090E00E94990382EC93E068D8D5
:101C900080E392E0BDDC64E670E080E090E00E94CA
:101CA000990349E16AE882EC93E00E94AE0489E17D
:101CB0008093C30383E392E0ABDC86E392E0A8DC8D
:101CC00084EF91E09093D1038093D0039093C50368
:101CD0008093C4038EEC93E00E94C90582EC93E0EC
:101CE0000E94C90584E492E044DC8EEC93E00E94FB
:101CF0009B05BC0190E080E04AE048DC84E292E091
:101D000038DC64E670E080E090E00E94990380E5B2
:101D100092E02FDC82EC93E00E949B05BC0190E0F6
:101D200080E04AE033DC84E292E023DC68EE73E09A
:101D300080E090E00E9499030E948702D3CFA1E245
:101D40001A2EAA1BBB1BFD010DC0AA1FBB1FEE1F35
:101D5000FF1FA217B307E407F50720F0A21BB30B80
:101D6000E40BF50B661F771F881F991F1A9469F7FC
:101D700060957095809590959B01AC01BD01CF0158
:101D80000895EE0FFF1F881F8BBF0790F691E02D7F
:101D900019940FD0A59F900DB49F900DA49F800D16
:101DA000911D11240895B7FFF4CFF3DF821B930B2D
:101DB0000895A29FB001B39FC001A39F700D811D24
:101DC0001124911DB29F700D811D1124911D089544
:041DD000F894FFCFB5
:101DD400000000001C028701B4016802E501C30190
:101DE400D701000000005C043004CB04060429047D
:101DF400160407040D0A0030300030310030320080
:101E04003033003034006164647265737365732029
:101E14007365740053656E736F725F31203D2000EB
:0C1E240053656E736F725F32203D20002A
:00000001FF
