:100000000C9472000C947E000C947E000C947E0084
:100010000C947E000C947E000C947E000C947E0068
:100020000C947E000C947E000C947E000C947E0058
:100030000C947E000C947E000C947E000C947E0048
:100040000C947E000C947E000C947E000C947E0038
:100050000C947E000C947E000C947E000C947E0028
:100060000C947E000C947E000C947E000C947E0018
:100070000C947E000C947E000C947E000C947E0008
:100080000C947E000C947E000C947E000C947E00F8
:100090000C947E000C947E000C947E000C947E00E8
:1000A0000C947E000C947E000C947E000C947E00D8
:1000B0000C947E000C947E000C947E000C947E00C8
:1000C0000C947E000C947E000C947E000C947E00B8
:1000D0000C947E000C947E000C947E000C947E00A8
:1000E0000C947E0011241FBECFEFD1E2DEBFCDBF46
:1000F00000E00CBF0E94EB000C9427010C94000060
:10010000E1E0F1E0808188638083E2E0F1E08081DA
:10011000886380830895E2E0F1E08081877F8083B7
:100120000895E2E0F1E08081886080830895E2E054
:10013000F1E080818F7D80830895E2E0F1E08081AD
:10014000806280830895E2E0F1E080818F7E808389
:100150000895E2E0F1E08081806180830895F89461
:10016000A1EAB0E01C928FEF8093A5001092A4004A
:100170001092A9008093A8001092AB008093AA006F
:100180001092AD008093AC00E0EAF0E08081886AD4
:10019000808380818B7A808380818160808380816D
:1001A0008D7F80838C9188608C938C9183608C93FD
:1001B0008C918B7F8C937894089580958093A80080
:1001C00060956093AC0040954093AA0008950E940A
:1001D00080000C94AF000E94E700C0E0D0E040E057
:1001E0006C2F8C2F80950E94DD008FE39CE9019796
:1001F000F1F700C000002196C11591E0D90779F709
:10020000C0E0D0E06C2F60954C2F80E00E94DD00B4
:100210008FE39CE90197F1F700C000002196C1151A
:1002200091E0D90779F7C0E0D0E04C2F409560E02D
:100230008C2F0E94DD008FE39CE90197F1F700C04D
:1002400000002196C11591E0D90779F7C6CFF8943F
:02025000FFCFDE
:00000001FF
