:100000000C9472000C947E000C947E000C947E0084
:100010000C947E000C947E000C947E000C947E0068
:100020000C947E000C947E000C947E000C947E0058
:100030000C947E000C947E000C947E000C947E0048
:100040000C947E000C947E000C947E000C947E0038
:100050000C947E000C947E000C947E000C947E0028
:100060000C947E000C947E000C947E000C947E0018
:100070000C947E000C947E000C947E000C947E0008
:100080000C947E000C947E000C947E000C947E00F8
:100090000C947E000C947E000C947E000C947E00E8
:1000A0000C947E000C947E000C947E000C947E00D8
:1000B0000C947E000C947E000C947E000C947E00C8
:1000C0000C947E000C947E000C947E000C947E00B8
:1000D0000C947E000C947E000C947E000C947E00A8
:1000E0000C947E0011241FBECFEFD1E2DEBFCDBF46
:1000F00000E00CBF0E94AF000C94F4000C940000D0
:10010000E1E0F1E0808188638083E2E0F1E08081DA
:10011000886380830895E2E0F1E08081877F8083B7
:100120000895E2E0F1E08081886080830895E2E054
:10013000F1E080818F7E80830895E2E0F1E08081AC
:10014000806180830895E2E0F1E080818F7D80838B
:100150000895E2E0F1E080818062808308950E944A
:1001600080000E948B002FEF83ED90E321508040B0
:100170009040E1F700C000000E9491002FEF83ED56
:1001800090E3215080409040E1F700C000000E94C1
:10019000A3002FEF83ED90E3215080409040E1F7E2
:1001A00000C000000E94A9002FEF83ED90E32150D2
:1001B00080409040E1F700C000000E9497002FEFC0
:1001C00083ED90E3215080409040E1F700C00000B3
:1001D0000E949D002FEF83ED90E3215080409040DE
:0C01E000E1F700C00000BDCFF894FFCF95
:00000001FF
